{"abi":[{"type":"constructor","inputs":[{"name":"admin","type":"address","internalType":"address"}],"stateMutability":"nonpayable"},{"type":"function","name":"DEFAULT_ADMIN_ROLE","inputs":[],"outputs":[{"name":"","type":"bytes32","internalType":"bytes32"}],"stateMutability":"view"},{"type":"function","name":"MANUFACTURER_ROLE","inputs":[],"outputs":[{"name":"","type":"bytes32","internalType":"bytes32"}],"stateMutability":"view"},{"type":"function","name":"RETAILER_ROLE","inputs":[],"outputs":[{"name":"","type":"bytes32","internalType":"bytes32"}],"stateMutability":"view"},{"type":"function","name":"SHIPPER_ROLE","inputs":[],"outputs":[{"name":"","type":"bytes32","internalType":"bytes32"}],"stateMutability":"view"},{"type":"function","name":"approve","inputs":[{"name":"to","type":"address","internalType":"address"},{"name":"tokenId","type":"uint256","internalType":"uint256"}],"outputs":[],"stateMutability":"nonpayable"},{"type":"function","name":"balanceOf","inputs":[{"name":"owner","type":"address","internalType":"address"}],"outputs":[{"name":"","type":"uint256","internalType":"uint256"}],"stateMutability":"view"},{"type":"function","name":"getApproved","inputs":[{"name":"tokenId","type":"uint256","internalType":"uint256"}],"outputs":[{"name":"","type":"address","internalType":"address"}],"stateMutability":"view"},{"type":"function","name":"getHistory","inputs":[{"name":"tokenId","type":"uint256","internalType":"uint256"}],"outputs":[{"name":"","type":"tuple[]","internalType":"struct SupplyChainTracker.TrackingEvent[]","components":[{"name":"stage","type":"uint8","internalType":"enum SupplyChainTracker.Stage"},{"name":"actor","type":"address","internalType":"address"},{"name":"location","type":"string","internalType":"string"},{"name":"notes","type":"string","internalType":"string"},{"name":"timestamp","type":"uint64","internalType":"uint64"}]}],"stateMutability":"view"},{"type":"function","name":"getProduct","inputs":[{"name":"tokenId","type":"uint256","internalType":"uint256"}],"outputs":[{"name":"","type":"tuple","internalType":"struct SupplyChainTracker.Product","components":[{"name":"name","type":"string","internalType":"string"},{"name":"serialNumber","type":"string","internalType":"string"},{"name":"origin","type":"string","internalType":"string"},{"name":"manufacturer","type":"address","internalType":"address"},{"name":"currentHolder","type":"address","internalType":"address"},{"name":"manufacturedAt","type":"uint64","internalType":"uint64"},{"name":"stage","type":"uint8","internalType":"enum SupplyChainTracker.Stage"},{"name":"exists","type":"bool","internalType":"bool"}]}],"stateMutability":"view"},{"type":"function","name":"getRoleAdmin","inputs":[{"name":"role","type":"bytes32","internalType":"bytes32"}],"outputs":[{"name":"","type":"bytes32","internalType":"bytes32"}],"stateMutability":"view"},{"type":"function","name":"grantRole","inputs":[{"name":"role","type":"bytes32","internalType":"bytes32"},{"name":"account","type":"address","internalType":"address"}],"outputs":[],"stateMutability":"nonpayable"},{"type":"function","name":"hasRole","inputs":[{"name":"role","type":"bytes32","internalType":"bytes32"},{"name":"account","type":"address","internalType":"address"}],"outputs":[{"name":"","type":"bool","internalType":"bool"}],"stateMutability":"view"},{"type":"function","name":"isApprovedForAll","inputs":[{"name":"owner","type":"address","internalType":"address"},{"name":"operator","type":"address","internalType":"address"}],"outputs":[{"name":"","type":"bool","internalType":"bool"}],"stateMutability":"view"},{"type":"function","name":"isSerialRegistered","inputs":[{"name":"serialNumber_","type":"string","internalType":"string"}],"outputs":[{"name":"","type":"bool","internalType":"bool"}],"stateMutability":"view"},{"type":"function","name":"mintProduct","inputs":[{"name":"name_","type":"string","internalType":"string"},{"name":"serialNumber_","type":"string","internalType":"string"},{"name":"origin_","type":"string","internalType":"string"}],"outputs":[{"name":"tokenId","type":"uint256","internalType":"uint256"}],"stateMutability":"nonpayable"},{"type":"function","name":"name","inputs":[],"outputs":[{"name":"","type":"string","internalType":"string"}],"stateMutability":"view"},{"type":"function","name":"ownerOf","inputs":[{"name":"tokenId","type":"uint256","internalType":"uint256"}],"outputs":[{"name":"","type":"address","internalType":"address"}],"stateMutability":"view"},{"type":"function","name":"products","inputs":[{"name":"tokenId","type":"uint256","internalType":"uint256"}],"outputs":[{"name":"name","type":"string","internalType":"string"},{"name":"serialNumber","type":"string","internalType":"string"},{"name":"origin","type":"string","internalType":"string"},{"name":"manufacturer","type":"address","internalType":"address"},{"name":"currentHolder","type":"address","internalType":"address"},{"name":"manufacturedAt","type":"uint64","internalType":"uint64"},{"name":"stage","type":"uint8","internalType":"enum SupplyChainTracker.Stage"},{"name":"exists","type":"bool","internalType":"bool"}],"stateMutability":"view"},{"type":"function","name":"recordPickup","inputs":[{"name":"tokenId","type":"uint256","internalType":"uint256"},{"name":"location_","type":"string","internalType":"string"},{"name":"notes_","type":"string","internalType":"string"}],"outputs":[],"stateMutability":"nonpayable"},{"type":"function","name":"recordRetailerReceipt","inputs":[{"name":"tokenId","type":"uint256","internalType":"uint256"},{"name":"location_","type":"string","internalType":"string"},{"name":"notes_","type":"string","internalType":"string"}],"outputs":[],"stateMutability":"nonpayable"},{"type":"function","name":"recordTransitCheckpoint","inputs":[{"name":"tokenId","type":"uint256","internalType":"uint256"},{"name":"location_","type":"string","internalType":"string"},{"name":"notes_","type":"string","internalType":"string"}],"outputs":[],"stateMutability":"nonpayable"},{"type":"function","name":"renounceRole","inputs":[{"name":"role","type":"bytes32","internalType":"bytes32"},{"name":"callerConfirmation","type":"address","internalType":"address"}],"outputs":[],"stateMutability":"nonpayable"},{"type":"function","name":"revokeRole","inputs":[{"name":"role","type":"bytes32","internalType":"bytes32"},{"name":"account","type":"address","internalType":"address"}],"outputs":[],"stateMutability":"nonpayable"},{"type":"function","name":"safeTransferFrom","inputs":[{"name":"from","type":"address","internalType":"address"},{"name":"to","type":"address","internalType":"address"},{"name":"tokenId","type":"uint256","internalType":"uint256"}],"outputs":[],"stateMutability":"nonpayable"},{"type":"function","name":"safeTransferFrom","inputs":[{"name":"from","type":"address","internalType":"address"},{"name":"to","type":"address","internalType":"address"},{"name":"tokenId","type":"uint256","internalType":"uint256"},{"name":"data","type":"bytes","internalType":"bytes"}],"outputs":[],"stateMutability":"nonpayable"},{"type":"function","name":"sellToConsumer","inputs":[{"name":"tokenId","type":"uint256","internalType":"uint256"},{"name":"consumer","type":"address","internalType":"address"},{"name":"notes_","type":"string","internalType":"string"}],"outputs":[],"stateMutability":"nonpayable"},{"type":"function","name":"setApprovalForAll","inputs":[{"name":"operator","type":"address","internalType":"address"},{"name":"approved","type":"bool","internalType":"bool"}],"outputs":[],"stateMutability":"nonpayable"},{"type":"function","name":"supportsInterface","inputs":[{"name":"interfaceId","type":"bytes4","internalType":"bytes4"}],"outputs":[{"name":"","type":"bool","internalType":"bool"}],"stateMutability":"view"},{"type":"function","name":"symbol","inputs":[],"outputs":[{"name":"","type":"string","internalType":"string"}],"stateMutability":"view"},{"type":"function","name":"tokenURI","inputs":[{"name":"tokenId","type":"uint256","internalType":"uint256"}],"outputs":[{"name":"","type":"string","internalType":"string"}],"stateMutability":"view"},{"type":"function","name":"totalProducts","inputs":[],"outputs":[{"name":"","type":"uint256","internalType":"uint256"}],"stateMutability":"view"},{"type":"function","name":"transferFrom","inputs":[{"name":"from","type":"address","internalType":"address"},{"name":"to","type":"address","internalType":"address"},{"name":"tokenId","type":"uint256","internalType":"uint256"}],"outputs":[],"stateMutability":"nonpayable"},{"type":"function","name":"verifyAuthenticity","inputs":[{"name":"tokenId","type":"uint256","internalType":"uint256"},{"name":"serialNumber_","type":"string","internalType":"string"}],"outputs":[{"name":"isAuthentic","type":"bool","internalType":"bool"},{"name":"stage","type":"uint8","internalType":"enum SupplyChainTracker.Stage"},{"name":"manufacturer","type":"address","internalType":"address"}],"stateMutability":"view"},{"type":"event","name":"Approval","inputs":[{"name":"owner","type":"address","indexed":true,"internalType":"address"},{"name":"approved","type":"address","indexed":true,"internalType":"address"},{"name":"tokenId","type":"uint256","indexed":true,"internalType":"uint256"}],"anonymous":false},{"type":"event","name":"ApprovalForAll","inputs":[{"name":"owner","type":"address","indexed":true,"internalType":"address"},{"name":"operator","type":"address","indexed":true,"internalType":"address"},{"name":"approved","type":"bool","indexed":false,"internalType":"bool"}],"anonymous":false},{"type":"event","name":"OwnershipTransferLogged","inputs":[{"name":"tokenId","type":"uint256","indexed":true,"internalType":"uint256"},{"name":"from","type":"address","indexed":true,"internalType":"address"},{"name":"to","type":"address","indexed":true,"internalType":"address"},{"name":"timestamp","type":"uint256","indexed":false,"internalType":"uint256"}],"anonymous":false},{"type":"event","name":"ProductRegistered","inputs":[{"name":"tokenId","type":"uint256","indexed":true,"internalType":"uint256"},{"name":"serialNumber","type":"string","indexed":false,"internalType":"string"},{"name":"manufacturer","type":"address","indexed":true,"internalType":"address"},{"name":"timestamp","type":"uint256","indexed":false,"internalType":"uint256"}],"anonymous":false},{"type":"event","name":"ProductSold","inputs":[{"name":"tokenId","type":"uint256","indexed":true,"internalType":"uint256"},{"name":"retailer","type":"address","indexed":true,"internalType":"address"},{"name":"consumer","type":"address","indexed":true,"internalType":"address"},{"name":"timestamp","type":"uint256","indexed":false,"internalType":"uint256"}],"anonymous":false},{"type":"event","name":"RoleAdminChanged","inputs":[{"name":"role","type":"bytes32","indexed":true,"internalType":"bytes32"},{"name":"previousAdminRole","type":"bytes32","indexed":true,"internalType":"bytes32"},{"name":"newAdminRole","type":"bytes32","indexed":true,"internalType":"bytes32"}],"anonymous":false},{"type":"event","name":"RoleGranted","inputs":[{"name":"role","type":"bytes32","indexed":true,"internalType":"bytes32"},{"name":"account","type":"address","indexed":true,"internalType":"address"},{"name":"sender","type":"address","indexed":true,"internalType":"address"}],"anonymous":false},{"type":"event","name":"RoleRevoked","inputs":[{"name":"role","type":"bytes32","indexed":true,"internalType":"bytes32"},{"name":"account","type":"address","indexed":true,"internalType":"address"},{"name":"sender","type":"address","indexed":true,"internalType":"address"}],"anonymous":false},{"type":"event","name":"StageUpdated","inputs":[{"name":"tokenId","type":"uint256","indexed":true,"internalType":"uint256"},{"name":"stage","type":"uint8","indexed":false,"internalType":"enum SupplyChainTracker.Stage"},{"name":"actor","type":"address","indexed":true,"internalType":"address"},{"name":"location","type":"string","indexed":false,"internalType":"string"},{"name":"notes","type":"string","indexed":false,"internalType":"string"},{"name":"timestamp","type":"uint256","indexed":false,"internalType":"uint256"}],"anonymous":false},{"type":"event","name":"Transfer","inputs":[{"name":"from","type":"address","indexed":true,"internalType":"address"},{"name":"to","type":"address","indexed":true,"internalType":"address"},{"name":"tokenId","type":"uint256","indexed":true,"internalType":"uint256"}],"anonymous":false},{"type":"error","name":"AccessControlBadConfirmation","inputs":[]},{"type":"error","name":"AccessControlUnauthorizedAccount","inputs":[{"name":"account","type":"address","internalType":"address"},{"name":"neededRole","type":"bytes32","internalType":"bytes32"}]},{"type":"error","name":"ConsumerIsZeroAddress","inputs":[]},{"type":"error","name":"ERC721IncorrectOwner","inputs":[{"name":"sender","type":"address","internalType":"address"},{"name":"tokenId","type":"uint256","internalType":"uint256"},{"name":"owner","type":"address","internalType":"address"}]},{"type":"error","name":"ERC721InsufficientApproval","inputs":[{"name":"operator","type":"address","internalType":"address"},{"name":"tokenId","type":"uint256","internalType":"uint256"}]},{"type":"error","name":"ERC721InvalidApprover","inputs":[{"name":"approver","type":"address","internalType":"address"}]},{"type":"error","name":"ERC721InvalidOperator","inputs":[{"name":"operator","type":"address","internalType":"address"}]},{"type":"error","name":"ERC721InvalidOwner","inputs":[{"name":"owner","type":"address","internalType":"address"}]},{"type":"error","name":"ERC721InvalidReceiver","inputs":[{"name":"receiver","type":"address","internalType":"address"}]},{"type":"error","name":"ERC721InvalidSender","inputs":[{"name":"sender","type":"address","internalType":"address"}]},{"type":"error","name":"ERC721NonexistentToken","inputs":[{"name":"tokenId","type":"uint256","internalType":"uint256"}]},{"type":"error","name":"EmptySerialNumber","inputs":[]},{"type":"error","name":"InvalidStageTransition","inputs":[{"name":"tokenId","type":"uint256","internalType":"uint256"},{"name":"currentStage","type":"uint8","internalType":"enum SupplyChainTracker.Stage"},{"name":"requiredStage","type":"uint8","internalType":"enum SupplyChainTracker.Stage"}]},{"type":"error","name":"NotCurrentHolder","inputs":[{"name":"tokenId","type":"uint256","internalType":"uint256"},{"name":"expected","type":"address","internalType":"address"},{"name":"caller","type":"address","internalType":"address"}]},{"type":"error","name":"ProductDoesNotExist","inputs":[{"name":"tokenId","type":"uint256","internalType":"uint256"}]},{"type":"error","name":"SerialAlreadyRegistered","inputs":[{"name":"serialNumber","type":"string","internalType":"string"}]},{"type":"error","name":"StringsInsufficientHexLength","inputs":[{"name":"value","type":"uint256","internalType":"uint256"},{"name":"length","type":"uint256","internalType":"uint256"}]}],"bytecode":{"object":"0x6080346200032857601f1990601f906001600160401b03620041943881900384810186168401838111858210176200024a57849282916040528339602093849181010312620003285751926001600160a01b03841684036200032857620000656200032c565b92601284527129bab838363ca1b430b4b72a3930b1b5b2b960711b818501526200008e6200032c565b90600382526214d0d560ea1b8183015284518481116200024a575f546001968782811c921680156200031d575b848310146200022b578186849311620002ca575b5083908683116001146200026a575f926200025e575b50505f19600383901b1c191690861b175f555b81519384116200024a5784548581811c911680156200023f575b828210146200022b57838111620001e3575b50809284116001146200017b57506200015e95505f9190836200016f575b50505f19600383901b1c191690821b1781555b6007556200034c565b50604051613da59081620003cf8239f35b015190505f8062000142565b5f85815281812094978816915b828210620001cb57505091849391876200015e989410620001b2575b505050811b01815562000155565b01515f1960f88460031b161c191690555f8080620001a4565b80878697829497870151815501960194019062000188565b855f52815f208480870160051c82019284881062000221575b0160051c019086905b8281106200021557505062000124565b5f815501869062000205565b92508192620001fc565b634e487b7160e01b5f52602260045260245ffd5b90607f169062000112565b634e487b7160e01b5f52604160045260245ffd5b015190505f80620000e5565b908a899416915f8052855f20925f5b87828210620002b357505084116200029a575b505050811b015f55620000f8565b01515f1960f88460031b161c191690555f80806200028c565b8385015186558c9790950194938401930162000279565b9091505f8052835f208680850160051c82019286861062000313575b918a91869594930160051c01915b82811062000304575050620000cf565b5f81558594508a9101620002f4565b92508192620002e6565b91607f1691620000bb565b5f80fd5b60408051919082016001600160401b038111838210176200024a57604052565b6001600160a01b03165f8181525f8051602062004174833981519152602052604090205460ff16620003c9575f8181525f805160206200417483398151915260205260408120805460ff191660011790553391907f2f8788117e7eff1d82e926ec794901d17c78024a50270940304540a733656f0d8180a4600190565b505f9056fe6080806040526004361015610012575f80fd5b5f3560e01c90816301ffc9a714612aad5750806306fdde0314612a06578063081812fc146129ca578063095ea7b3146128e95780630a100d6c146128af5780632115e7bf1461287557806322d543951461282057806323b872dd14612809578063248a9ca3146127dc5780632f2ff15d1461279f57806336568abe1461275857806342842e0e1461272b57806356a3aeec1461231f5780636352211e146122ef57806370a08231146122995780637acc0b20146121c857806391d148541461217f57806395d89b41146120a1578063965288b0146120675780639b9d326d1461203e578063a217fddf14612024578063a22cb46514611f65578063a53e44ac14611a23578063acbbb8ec1461197a578063b88d4fde1461190f578063b9db15b414611770578063c60f89cc146116a9578063c8691b2a14611522578063c87b56dd14610fb2578063cdd1a6ee14610f4c578063d547741f14610f0d578063e985e9c514610ebb5763f44f66b414610187575f80fd5b34610ab6576060366003190112610ab6576004356001600160401b038111610ab6576101b7903690600401612ba4565b906024356001600160401b038111610ab6576101d7903690600401612ba4565b90926044356001600160401b038111610ab6576101f8903690600401612ba4565b335f9081527fc8341cdc0a9bd1e1b628e110be72308900eda4e7a3cfaf60589853b442d1bb9860205260409020549092907feefb95e842a3287179d933b4460be539a1d5af11aa8b325bb45c5c8dc92de4ed9060ff1615610e9d57508315610e8b57610265368588612e00565b60208151910120805f52600a60205260ff60405f205416610e64575f52600a60205260405f20600160ff19825416179055600754945f198614610e50576102c19060018701600755604051926102ba84612c8d565b3691612e00565b81526102ce368588612e00565b60208201526102de368484612e00565b60408201523360608201523360808201526001600160401b03421660a08201525f60c0820152600160e0820152845f52600860205260405f209080518051906001600160401b0382116108965781906103378554612c55565b601f8111610e03575b50602090601f8311600114610d9b575f92610d90575b50508160011b915f199060031b1c19161782555b60208101518051906001600160401b03821161089657819061038f6001860154612c55565b601f8111610d40575b50602090601f8311600114610cd2575f92610cc7575b50508160011b915f199060031b1c19161760018301555b60408101518051906001600160401b0382116108965781906103ea6002860154612c55565b601f8111610c77575b50602090601f8311600114610c09575f92610bfe575b50508160011b915f199060031b1c19161760028301555b60608101516003830180546001600160a01b0319166001600160a01b03928316179055608082015160048085015460a08581015160c087015192959294911b67ffffffffffffffff60a01b16929116908310156109825760049460e060ff60e81b910151151560e81b169361ffff60f01b1617179060ff60e01b9060e01b161717910155600160ff19600b541617600b556040516104bd81612cc4565b5f81523315610be6575f858152600260205260409020546001600160a01b031680610bb3575b335f52600360205260405f2060018154019055855f52600260205260405f20336001600160601b0360a01b8254161790558533827fddf252ad1be2c89b69c2b068fc378daa952ba7f163c4a11628f55a4df523b3ef5f80a460ff600b54161580610baa575b80610ba2575b610ada575b610ac257333b6109aa575b506105749160ff19600b5416600b553691612e00565b60405161058081612cfa565b602381527f50726f64756374206d616e75666163747572656420616e6420726567697374656020820152621c995960ea1b6040820152835f52600960205260405f2090604051926105d084612ca9565b5f8452336020850152604084015260608301526001600160401b0342166080830152805490600160401b8210156108965760018201808255821015610996575f5260205f209082516004811015610982578160021b83015460ff610100600160a81b03602087015160081b169216906001600160581b0360a81b1617178160021b83015560408301518051906001600160401b03821161089657819061067e60018560021b87010154612c55565b601f811161092d575b50602090601f83116001146108b5575f926108aa575b50508160011b915f199060031b1c19161760018260021b840101555b60608301518051906001600160401b038211610896576106e0600284811b86010154612c55565b601f811161084a575b509160209793918795938990601f83116001146107a2577f5b750c34ff65e7500b4250ef0db18cf3a3f0d4ce3131ef7e64d457b0bea7236f96946107839694846001600160401b03956080956003955f92610797575b50508160011b915f1990861b1c191617600282811b840101555b60021b0101920151166001600160401b031982541617905560405194604086526040860191612e8a565b9242868201528033940390a3604051908152f35b015190505f8061073f565b90600284811b8601015f528a5f20915f5b601f198516811061083057509461078396946001856080956003957f5b750c34ff65e7500b4250ef0db18cf3a3f0d4ce3131ef7e64d457b0bea7236f9c9a6001600160401b0399601f19811610610819575b505050811b01600282811b84010155610759565b01515f1983881b60f8161c191690555f8080610805565b8183015184558b9950600190930192918c01918c016107b3565b600284811b8601015f5260205f20601f840160051c8101916020851061088c575b601f0160051c01905b81811061088157506106e9565b5f8155600101610874565b909150819061086b565b634e487b7160e01b5f52604160045260245ffd5b015190505f8061069d565b925060018460021b8601015f5260205f20905f935b601f1984168510610912576001945083601f198116106108fa575b505050811b0160018260021b840101556106b9565b01515f1960f88460031b161c191690555f80806108e5565b818101518355602094850194600190930192909101906108ca565b90915060018460021b8601015f5260205f20601f840160051c81016020851061097b575b90849392915b601f830160051c8201811061096d575050610687565b5f8155859450600101610957565b5080610951565b634e487b7160e01b5f52602160045260245ffd5b634e487b7160e01b5f52603260045260245ffd5b604051602081806109e3630a85bd0160e11b958683523360048401525f60248401528a6044840152608060648401526084830190612b53565b03815f335af15f9181610a79575b50610a4a573d15610a43573d610a0681612de5565b90610a146040519283612d15565b81523d5f602083013e5b80519081610a3e57604051633250574960e11b8152336004820152602490fd5b602001fd5b6060610a1e565b6001600160e01b03191603610a615761057461055e565b604051633250574960e11b8152336004820152602490fd5b9091506020813d602011610aba575b81610a9560209383612d15565b81010312610ab657516001600160e01b031981168103610ab657905f6109f1565b5f80fd5b3d9150610a88565b6040516339e3563760e11b81525f6004820152602490fd5b6008602052600460405f2001336001600160601b0360a01b825416179055610b6f604051610b0781612cdf565b601281527129b2b1b7b73230b93c903a3930b739b332b960711b602082015260405190610b3382612cfa565b602282527f4f776e657273686970207472616e7366657272656420706565722d746f2d706560208301526132b960f11b60408301523389613742565b60405142815281877fdc4feee405d19f237957fd6a2bfd473cd984d537db9917008ae859133645e79a60203394a4610553565b50600161054e565b50801515610548565b5f86815260046020526040902080546001600160a01b0319169055805f52600360205260405f205f1981540190556104e3565b604051633250574960e11b81525f6004820152602490fd5b015190505f80610409565b9250600285015f5260205f20905f935b601f1984168510610c5c576001945083601f19811610610c44575b505050811b016002830155610420565b01515f1960f88460031b161c191690555f8080610c34565b81810151835560209485019460019093019290910190610c19565b909150600285015f5260205f20601f840160051c810160208510610cc0575b90849392915b601f830160051c82018110610cb25750506103f3565b5f8155859450600101610c9c565b5080610c96565b015190505f806103ae565b9250600185015f5260205f20905f935b601f1984168510610d25576001945083601f19811610610d0d575b505050811b0160018301556103c5565b01515f1960f88460031b161c191690555f8080610cfd565b81810151835560209485019460019093019290910190610ce2565b909150600185015f5260205f20601f840160051c810160208510610d89575b90849392915b601f830160051c82018110610d7b575050610398565b5f8155859450600101610d65565b5080610d5f565b015190505f80610356565b9250845f5260205f20905f935b601f1984168510610de8576001945083601f19811610610dd0575b505050811b01825561036a565b01515f1960f88460031b161c191690555f8080610dc3565b81810151835560209485019460019093019290910190610da8565b909150845f5260205f20601f840160051c810160208510610e49575b90849392915b601f830160051c82018110610e3b575050610340565b5f8155859450600101610e25565b5080610e1f565b634e487b7160e01b5f52601160045260245ffd5b6040516304cd435d60e11b81526020600482015280610e8760248201888b612e8a565b0390fd5b604051631fce0a4d60e21b8152600490fd5b6044906040519063e2517d3f60e01b82523360048301526024820152fd5b34610ab6576040366003190112610ab657610ed4612b78565b610edc612b8e565b9060018060a01b038091165f52600560205260405f2091165f52602052602060ff60405f2054166040519015158152f35b34610ab6576040366003190112610ab657610f4a600435610f2c612b8e565b90805f526006602052610f45600160405f20015461331b565b6133bb565b005b34610ab6576040366003190112610ab6576024356001600160401b038111610ab657610fa2610f8d610f846060933690600401612ba4565b90600435612eec565b91929060405193151584526020840190612dd8565b6001600160a01b03166040820152f35b34610ab6576020366003190112610ab657600435610fcf81613b27565b805f52600860205260405f209060ff600460405193610fed85612c8d565b610ff681612d36565b855261100460018201612d36565b602086015261101560028201612d36565b604086015260038101546001600160a01b039081166060870152910154908116608085015260a081811c6001600160401b03169085015261105f60e082901c831660c08601612ee0565b60e81c16151560e08301528151915f827a184f03e93ff9f4daa797ed6e38ed64bf6a1f0100000000000000008181811015611514575b50506d04ee2d6d415b85acef810000000080821015611507575b50662386f26fc10000808210156114fa575b506305f5e100808210156114ed575b50612710808210156114e0575b5060648110156114d2575b600a809110156114c8575b6110ff60018301612de5565b9361110d6040519586612d15565b60018301855281602161112260018601612de5565b602088019590601f19013687378701015b5f1901916f181899199a1a9b1b9c1cb0b131b232b360811b8282061a835304908115611160578290611133565b5050506020820151604083015160c084015160048110156109825761118490613b45565b9160018060a01b03606086015116938495604051966111a288612cfa565b602a885260208801966040368937885115610996576030885388516001101561099657607860218a015360295b6001811161148257506114635761145f6113f86112256113f360fe8e8e8e8e8e8e8e8e60208f01519661124060296040519d8e809c683d913730b6b2911d1160b91b602083015260208151948593019101612b32565b8a019161202360f01b6029840152518093602b840190612b32565b017f222c226465736372697074696f6e223a22537570706c7920636861696e206365602b8201527f727469666963617465206f662061757468656e7469636974792e205365726961604b820152620361d160ed1b606b8201526112ad825180936020606e85019101612b32565b01690171027b934b3b4b71d160b51b606e8201526112d5825180936020607885019101612b32565b016f222c2261747472696275746573223a5b60801b60788201527f7b2274726169745f74797065223a225374616765222c2276616c7565223a2200608882015261132982518093602060a785019101612b32565b0161137d62089f4b60ea1b938460a78401527f7b2274726169745f74797065223a224d616e756661637475726572222c22766160aa84015265363ab2911d1160d11b60ca84015251809360d0840190612b32565b019060d08201527f7b2274726169745f74797065223a2253657269616c204e756d626572222c227660d38201526630b63ab2911d1160c91b60f38201526113ce82518093602060fa85019101612b32565b0161227d60f01b60fa820152615d7d60f01b60fc8201520360de810184520182612d15565b613c10565b61144b603d60405180937f646174613a6170706c69636174696f6e2f6a736f6e3b6261736536342c000000602083015261143b8151809260208686019101612b32565b810103601d810184520182612d15565b604051918291602083526020830190612b53565b0390f35b6044906040519063e22e27eb60e01b8252600482015260146024820152fd5b90600f81166010811015610996578a51831015610996576f181899199a1a9b1b9c1cb0b131b232b360811b901a8a83016020015360041c908015610e50575f19016111cf565b90600101906110f3565b6064600291049101906110e8565b60049104910190856110dd565b60089104910190856110d0565b60109104910190856110c1565b60209104910190856110af565b604093500490508580611095565b34610ab657602080600319360112610ab65760043561154081613b27565b5f526009815260405f20908154916001600160401b0392838111610896579160405192611572828260051b0185612d15565b80845281840180935f52825f205f915b8383106116385750505050604051928184019082855251809152604084019160408260051b86010193925f965b8388106115bc5786860387f35b90919293948380600192603f198a820301865288519061161b61160860a06115e5848651612dd8565b878060a01b03868601511686850152604085015190806040860152840190612b53565b6060808501519084830390850152612b53565b9186608080920151169101529701930197019690939291936115af565b60048560019260409997995161164d81612ca9565b855461165c60ff821683612ee0565b858060a01b039060081c1683820152611676858701612d36565b604082015261168760028701612d36565b60608201528b6003870154166080820152815201920192019190959395611582565b34610ab6576116b736612c06565b9193926116c26132c0565b60046116cd8561342f565b01805460ff8160e01c166004811015610982576001810361174257506001600160a01b031916331790555f80516020613d5083398151915292919061173d9061172d61171a368984612e00565b611725368787612e00565b903389613468565b6040519384933398429386612eaa565b0390a3005b6040516341153c0160e01b815260048101889052606491611767906024830190612dd8565b60016044820152fd5b34610ab6576020366003190112610ab6576004355f60e060405161179381612c8d565b6060815260606020820152606060408201528260608201528260808201528260a08201528260c082015201526117c881613b27565b5f52600860205260405f2060ff6004604051926117e484612c8d565b6117ed81612d36565b84526117fb60018201612d36565b602085015261180c60028201612d36565b604085015260038101546001600160a01b039081166060860152910154908116608084015260a081811c6001600160401b03169084015261185660e082901c831660c08501612ee0565b60e81c16151560e0820152604051809160208252805160e06118ba61188961010093846020880152610120870190612b53565b6118a5602086015191601f1992838983030160408a0152612b53565b90604086015190878303016060880152612b53565b9260018060a01b03606082015116608086015260018060a01b0360808201511660a08601526001600160401b0360a08201511660c086015261190360c082015183870190612dd8565b01511515908301520390f35b34610ab6576080366003190112610ab657611928612b78565b611930612b8e565b90604435606435926001600160401b038411610ab65736602385011215610ab657611968610f4a943690602481600401359101612e00565b92611974838383612e36565b336139dd565b34610ab65761198836612c06565b9193926119936132c0565b600461199e8561342f565b01805460ff8160e01c16600481101561098257806119f65750600168ff000000000000000160a01b0319163317600160e01b1790555f80516020613d5083398151915292919061173d9061172d61171a368984612e00565b6040516341153c0160e01b815260048101889052606491611a1b906024830190612dd8565b5f6044820152fd5b34610ab6576060366003190112610ab657611a3c612b8e565b6044356001600160401b038111610ab657611a5b903690600401612ba4565b611a63613265565b6001600160a01b039183831615611f53576004611a80813561342f565b01805460ff8160e01c1660048110156109825760028103611f245750848116338103611efe5750600168ff000000000000000160a01b03191685851617600360e01b179055611ad0600435612fd5565b611aeb60ff1991600183600b541617600b556004358761300f565b50600b5416600b55604051611aff81612cdf565b600d81526c506f696e74206f662073616c6560981b6020820152611b24368484612e00565b6004355f52600960205260405f209060405192611b4084612ca9565b60038452336020850152604084015260608301526001600160401b0342166080830152805490600160401b8210156108965760018201808255821015610996575f5260205f209082516004811015610982578160021b83015460ff610100600160a81b03602087015160081b169216906001600160581b0360a81b1617178160021b83015560408301518051906001600160401b038211610896578190611bef60018560021b87010154612c55565b601f8111611ea9575b50602090601f8311600114611e31575f92611e26575b50508160011b915f199060031b1c19161760018260021b840101555b60608301518051906001600160401b03821161089657611c51600284811b86010154612c55565b601f8111611dda575b50602090601f8311600114611d5457936001600160401b039383608094600394611cf69a99985f92611d49575b50508160011b915f1990861b1c191617600282811b840101555b60021b0101920151166001600160401b0319825416179055604051926003845260806020850152600d60808501526c506f696e74206f662073616c6560981b60a085015260c0604085015260c0840191612e8a565b4260608301525f80516020613d50833981519152339280600435930390a360405191428352169033907fa02e46fc9bbd3e1138787bc1dc117ae0b9a5a3745ea30b0ab673d79d90739029602060043592a4005b015190508d80611c87565b90600284811b8601015f5260205f20915f5b601f1985168110611dc2575093600184600394611cf69a9998946001600160401b0398608098601f19811610611dab575b505050811b01600282811b84010155611ca1565b01515f1983881b60f8161c191690558d8080611d97565b91926020600181928685015181550194019201611d66565b600284811b8601015f5260205f20601f840160051c81019160208510611e1c575b601f0160051c01905b818110611e115750611c5a565b5f8155600101611e04565b9091508190611dfb565b015190508980611c0e565b925060018460021b8601015f5260205f20905f935b601f1984168510611e8e576001945083601f19811610611e76575b505050811b0160018260021b84010155611c2a565b01515f1960f88460031b161c19169055898080611e61565b81810151835560209485019460019093019290910190611e46565b90915060018460021b8601015f5260205f20601f840160051c810160208510611ef7575b90849392915b601f830160051c82018110611ee9575050611bf8565b5f8155859450600101611ed3565b5080611ecd565b6064906040519063a83cda8b60e01b825260043560048301526024820152336044820152fd5b6040516341153c0160e01b81526004803590820152606491611f4a906024830190612dd8565b60026044820152fd5b60405163b800f90760e01b8152600490fd5b34610ab6576040366003190112610ab657611f7e612b78565b60243590811515809203610ab657331561200c576001600160a01b0316908115611ff357335f52600560205260405f20825f5260205260405f2060ff1981541660ff83161790556040519081527f17307eab39ab6107e8899845ad3d59bd9653f200f220920489ca2b5937696c3160203392a3005b604051630b61174360e31b815260048101839052602490fd5b60405163a9fbf51f60e01b81525f6004820152602490fd5b34610ab6575f366003190112610ab65760206040515f8152f35b34610ab6575f366003190112610ab6576007545f198101908111610e5057602090604051908152f35b34610ab6575f366003190112610ab65760206040517feefb95e842a3287179d933b4460be539a1d5af11aa8b325bb45c5c8dc92de4ed8152f35b34610ab6575f366003190112610ab6576040515f600182600154926120c584612c55565b92838352602094856001821691825f1461215f575050600114612104575b506120f092500383612d15565b61145f604051928284938452830190612b53565b84915060015f527fb10e2d527612073b26eecdfd717e6a320cf44b4afac2b0732d9fcbe2b7fa0cf6905f915b8583106121475750506120f09350820101856120e3565b80548389018501528794508693909201918101612130565b60ff1916858201526120f095151560051b85010192508791506120e39050565b34610ab6576040366003190112610ab657612198612b8e565b6004355f52600660205260405f209060018060a01b03165f52602052602060ff60405f2054166040519015158152f35b34610ab6576020366003190112610ab6576004355f52600860205261223d60405f206121f381612d36565b9060ff61220260018301612d36565b61220e60028401612d36565b61225960018060a01b039161224b60048460038901541697015494604051998a99610100808c528b0190612b53565b9089820360208b0152612b53565b908782036040890152612b53565b936060860152811660808501526001600160401b038160a01c1660a085015261228a60c08501838360e01c16612dd8565b60e81c16151560e08301520390f35b34610ab6576020366003190112610ab6576001600160a01b036122ba612b78565b1680156122d7575f526003602052602060405f2054604051908152f35b6040516322718ad960e21b81525f6004820152602490fd5b34610ab6576020366003190112610ab657602061230d600435612fd5565b6040516001600160a01b039091168152f35b34610ab65761232d36612c06565b90919392612339613265565b60046123448561342f565b01805460ff8160e01c16600481101561098257600181036117425750600168ff000000000000000160a01b0319163317600160e11b179055612387368683612e00565b612392368486612e00565b855f52600960205260405f20604051926123ab84612ca9565b6002845260208401923384526040850191825260608501526001600160401b0342166080850152815491600160401b8310156108965760018301808255831015610996575f5260205f209284519060048210156109825760ff8460021b86015491610100600160a81b03905160081b169216906001600160581b0360a81b1617178260021b840155518051906001600160401b03821161089657819061245960018560021b87010154612c55565b601f81116126d6575b50602090601f8311600114612661575f92612656575b50508160011b915f199060031b1c19161760018260021b840101555b60608301518051906001600160401b038211610896576124bb600284811b86010154612c55565b601f811161260e575b50602090601f831160011461257757600361254f955f80516020613d508339815191529a98958561255d9b99966001600160401b03966080965f9261256c575b50508160011b915f1990861b1c191617600282811b840101555b60021b0101920151166001600160401b03198254161790556040519760028952608060208a01526080890191612e8a565b918683036040880152612e8a565b924260608201528033940390a3005b015190505f80612504565b90601f19831691600285811b8701015f5260205f20925f5b8181106125f65750955f80516020613d508339815191529a98956001866001600160401b039660809660039661255d9f9d9a61254f9d106125df575b505050811b01600282811b8401015561251e565b01515f1983881b60f8161c191690555f80806125cb565b9293602060018192878601518155019501930161258f565b600284811b8601015f5260205f20601f840160051c81016020851061264f575b601f830160051c820181106126445750506124c4565b5f815560010161262e565b508061262e565b015190508a80612478565b9150601f1983169160018560021b8701015f5260205f20925f5b8181106126be57509084600195949392106126a6575b505050811b0160018260021b84010155612494565b01515f1960f88460031b161c191690558a8080612691565b9293602060018192878601518155019501930161267b565b90915060018460021b8601015f5260205f20601f840160051c810160208510612724575b90849392915b601f830160051c82018110612716575050612462565b5f8155859450600101612700565b50806126fa565b34610ab657610f4a61273c36612bd1565b906040519261274a84612cc4565b5f8452611974838383612e36565b34610ab6576040366003190112610ab657612771612b8e565b336001600160a01b0382160361278d57610f4a906004356133bb565b60405163334bd91960e11b8152600490fd5b34610ab6576040366003190112610ab657610f4a6004356127be612b8e565b90805f5260066020526127d7600160405f20015461331b565b61333d565b34610ab6576020366003190112610ab6576004355f5260066020526020600160405f200154604051908152f35b34610ab657610f4a61281a36612bd1565b91612e36565b34610ab6576020366003190112610ab6576004356001600160401b038111610ab6576102ba612853913690600401612ba4565b602081519101205f52600a602052602060ff60405f2054166040519015158152f35b34610ab6575f366003190112610ab65760206040517f2a5f906c256a5d799494fcd066e1f6c077689de1cdb65052a1624de4bace99bf8152f35b34610ab6575f366003190112610ab65760206040517f4e362b67b88d3e2d34d2ca4e36ebff0c7ab75c9d4175270d06ec05e45f8570478152f35b34610ab6576040366003190112610ab657612902612b78565b60243561290e81612fd5565b331515806129b7575b8061298e575b612976576001600160a01b039283169282918491167f8c5be1e5ebec7d5bd14f71427d1e84f3dd0314c0f7b2291e5b200ac8c7c3b9255f80a45f90815260046020526040902080546001600160a01b0319169091179055005b60405163a9fbf51f60e01b8152336004820152602490fd5b5060018060a01b0381165f52600560205260405f20335f5260205260ff60405f2054161561291d565b506001600160a01b038116331415612917565b34610ab6576020366003190112610ab6576004356129e781612fd5565b505f526004602052602060018060a01b0360405f205416604051908152f35b34610ab6575f366003190112610ab6576040515f80549082612a2783612c55565b91828252602093600190856001821691825f1461215f575050600114612a5457506120f092500383612d15565b5f808052859250907f290decd9548b62a8d60345a988386fc84ba6bc95484008f6362f93160ef3e5635b858310612a955750506120f09350820101856120e3565b80548389018501528794508693909201918101612a7e565b34610ab6576020366003190112610ab6576004359063ffffffff60e01b8216809203610ab657602091637965db0b60e01b8114908115612aef575b5015158152f35b6380ac58cd60e01b811491508115612b21575b8115612b10575b5083612ae8565b6301ffc9a760e01b14905083612b09565b635b5e139f60e01b81149150612b02565b5f5b838110612b435750505f910152565b8181015183820152602001612b34565b90602091612b6c81518092818552858086019101612b32565b601f01601f1916010190565b600435906001600160a01b0382168203610ab657565b602435906001600160a01b0382168203610ab657565b9181601f84011215610ab6578235916001600160401b038311610ab65760208381860195010111610ab657565b6060906003190112610ab6576001600160a01b03906004358281168103610ab657916024359081168103610ab6579060443590565b906060600319830112610ab657600435916001600160401b0391602435838111610ab65782612c3791600401612ba4565b93909392604435918211610ab657612c5191600401612ba4565b9091565b90600182811c92168015612c83575b6020831014612c6f57565b634e487b7160e01b5f52602260045260245ffd5b91607f1691612c64565b61010081019081106001600160401b0382111761089657604052565b60a081019081106001600160401b0382111761089657604052565b602081019081106001600160401b0382111761089657604052565b604081019081106001600160401b0382111761089657604052565b606081019081106001600160401b0382111761089657604052565b90601f801991011681019081106001600160401b0382111761089657604052565b9060405191825f8254612d4881612c55565b908184526020946001916001811690815f14612db65750600114612d78575b505050612d7692500383612d15565b565b5f90815285812095935091905b818310612d9e575050612d7693508201015f8080612d67565b85548884018501529485019487945091830191612d85565b92505050612d7694925060ff191682840152151560051b8201015f8080612d67565b9060048210156109825752565b6001600160401b03811161089657601f01601f191660200190565b929192612e0c82612de5565b91612e1a6040519384612d15565b829481845281830111610ab6578281602093845f960137010152565b91906001600160a01b039081811615610be657612e56829184339161300f565b9316921690828203612e6757505050565b60649350604051926364283d7b60e01b8452600484015260248301526044820152fd5b908060209392818452848401375f828201840152601f01601f1916010190565b959493612ecd60609492612edb9460018a52608060208b015260808a0191612e8a565b918783036040890152612e8a565b930152565b60048210156109825752565b9290925f52600860205260405f209260405192612f0884612c8d565b612f1185612d36565b8452612f1f60018601612d36565b9160208501928352612f3360028701612d36565b604086015260018060a01b0392600484600389015416976060880198895201549584871660808201526001600160401b038760a01c1660a082015260ff60c0820197612f84828260e01c168a612ee0565b60e81c16159060e08215910152612fc65790612faa915160208151910120923691612e00565b6020815191012014925193600485101561098257511691929190565b505050509150505f905f905f90565b5f818152600260205260409020546001600160a01b0316908115612ff7575090565b60249060405190637e27328960e01b82526004820152fd5b91815f526020916002835260018060a01b03938493604085815f20541696879516801515806131cb575b5050841515958661319a575b8316958615159081613184575b855f5260028452825f20916001600160601b0360a01b9289848254161790558689897fddf252ad1be2c89b69c2b068fc378daa952ba7f163c4a11628f55a4df523b3ef5f80a460ff600b541615918261317c575b5081613174575b506130bd575b5050505050505090565b7fdc4feee405d19f237957fd6a2bfd473cd984d537db9917008ae859133645e79a936131639160088552886004855f200191825416179055825161310081612cdf565b601281527129b2b1b7b73230b93c903a3930b739b332b960711b8582015283519161312a83612cfa565b602283527f4f776e657273686970207472616e7366657272656420706565722d746f2d7065868401526132b960f11b8584015287613742565b51428152a45f8181808080806130b3565b90505f6130ad565b91505f6130a6565b875f5260038452825f2060018154019055613052565b5f85815260046020526040812080546001600160a01b03191690558681526003845282902080545f19019055613045565b809192939495965090613224575b156131ea5790818795949392613039565b84908761320857506024915190637e27328960e01b82526004820152fd5b90604492519163177e802f60e01b835260048301526024820152fd5b508087148015613249575b806131d95750845f52600483528086835f205416146131d9565b50865f5260058352815f20815f52835260ff825f20541661322f565b335f9081527f9b4a63cdee947eec45797f162f40b8ca7660dbe96e220e4c426dfb78e633999060205260409020547f2a5f906c256a5d799494fcd066e1f6c077689de1cdb65052a1624de4bace99bf9060ff1615610e9d5750565b335f9081527f9bac36db74c4db454b4c65d2065a5dcf5b18f2aad77b768d754147fc7a74f6e060205260409020547f4e362b67b88d3e2d34d2ca4e36ebff0c7ab75c9d4175270d06ec05e45f8570479060ff1615610e9d5750565b805f52600660205260405f20335f5260205260ff60405f20541615610e9d5750565b90815f52600660205260405f209060018060a01b031690815f5260205260ff60405f205416155f146133b557815f52600660205260405f20815f5260205260405f20600160ff1982541617905533917f2f8788117e7eff1d82e926ec794901d17c78024a50270940304540a733656f0d5f80a4600190565b50505f90565b90815f52600660205260405f209060018060a01b031690815f5260205260ff60405f2054165f146133b557815f52600660205260405f20815f5260205260405f2060ff19815416905533917ff6391f5c32d9c69d2a47ea670b442974b53935d1edc7fd64eb21e047a839171b5f80a4600190565b805f52600860205260405f209060ff600483015460e81c1615613450575090565b6024906040519063b4705b1d60e01b82526004820152fd5b939291935f526020936009855260405f20926001600160401b03926040519261349084612ca9565b60018085526001600160a01b0390921688850190815260408501918252606085019384524286166080860190815287549097600160401b82101561089657848201808255821015610996575f52895f209060021b0194519060048210156109825760ff865491610100600160a81b03905160081b169216906001600160581b0360a81b1617178455818401905190815186811161089657806135328354612c55565b938b601f958681116136f1575b50508b9085831160011461368e575f92613683575b50505f19600383901b1c191690841b1790555b600284019251805198868a1161089657896135828654612c55565b84811161363e575b505080928a116001146135da5750978092819260039798999a5f946135cf575b50501b915f1990861b1c19161790555b019151166001600160401b0319825416179055565b015192505f806135aa565b909891601f19831699855f52825f20925f905b8c821061362757505083600398999a9b10613610575b505050811b0190556135ba565b01515f1983881b60f8161c191690555f8080613603565b8087859682949686015181550195019301906135ed565b865f5284835f20918482850160051c8401941061367a575b0160051c019085905b82811061366f57508b915061358a565b5f815501859061365f565b92508192613656565b015190505f80613554565b5f8581528d8120889550929190601f198516908f5b8282106136d857505084116136c0575b505050811b019055613567565b01515f1960f88460031b161c191690555f80806136b3565b8484015186558a979095019493840193908101906136a3565b90919250845f5285825f209181860160051c8301938610613739575b918891869594930160051c01915b82811061372b57508d915061353f565b5f815585945088910161371b565b9250819261370d565b929190925f5260206009815260405f20926001600160401b03936040519261376984612ca9565b6003948585528185019760018060a01b031688526040850190815260608501938452608085019787421689528354600160401b81101561089657600194858201808255821015610996575f52835f209060021b0195519060048210156109825760ff875491610100600160a81b03905160081b169216906001600160581b0360a81b16171785558285019051908151888111610896578061380a8354612c55565b93601f9485811161398f575b508590858311600114613931575f92613926575b50505f19828a1b1c191690851b1790555b600285019351805192888411610896576138558654612c55565b8381116138e3575b508092841160011461389a57509282939183925f946135cf5750501b915f1990861b1c1916179055019151166001600160401b0319825416179055565b919083601f198116875f52845f20945f905b888383106138c9575050501061361057505050811b0190556135ba565b8587015188559096019594850194879350908101906138ac565b865f52815f208480870160051c82019284881061391d575b0160051c019086905b82811061391257505061385d565b5f8155018690613904565b925081926138fb565b015190505f8061382a565b90879350601f19831691855f52875f20925f5b898282106139795750508411613962575b505050811b01905561383b565b01515f19838c1b60f8161c191690555f8080613955565b8385015186558b97909501949384019301613944565b909150835f52855f208580850160051c8201928886106139d4575b918991869594930160051c01915b8281106139c6575050613816565b5f81558594508991016139b8565b925081926139aa565b9293909193843b6139f0575b5050505050565b604051630a85bd0160e11b8082526001600160a01b039586166004830152938516602482015260448101919091526080606482015260209594909316939290859082908190613a43906084830190612b53565b03815f885af15f9181613ae7575b50613ab0575050503d5f14613aa8573d91613a6b83612de5565b92613a796040519485612d15565b83523d5f8285013e5b82519283613aa357604051633250574960e11b815260048101849052602490fd5b019050fd5b606091613a82565b9193506001600160e01b031990911603613acf57505f808080806139e9565b60249060405190633250574960e11b82526004820152fd5b9091508581813d8311613b20575b613aff8183612d15565b81010312610ab657516001600160e01b031981168103610ab657905f613a51565b503d613af5565b805f52600860205260ff600460405f20015460e81c16156134505750565b6004811015610982578015613be75760018114613bc057600214613b8f57604051613b6f81612cdf565b601081526f29b7b632103a379021b7b739bab6b2b960811b602082015290565b604051613b9b81612cdf565b60158152742232b634bb32b932b2103a37902932ba30b4b632b960591b602082015290565b50604051613bcd81612cdf565b600a815269125b88151c985b9cda5d60b21b602082015290565b50604051613bf481612cdf565b600c81526b13585b9d599858dd1d5c995960a21b602082015290565b805115613d3c578051916002808401809411610e5057600393849004600281901b91906001600160fe1b03811603610e505793604051937f4142434445464748494a4b4c4d4e4f505152535455565758595a616263646566601f52603f917f6768696a6b6c6d6e6f707172737475767778797a303132333435363738392b2f603f5260208601928291835184019160208301998a51945f8c525b848110613d0057505050505090600391602095969752510680600114613ceb57600214613cde575b50808452830101604052565b603d905f1901535f613cd2565b50603d90815f1982015360011901535f613cd2565b836004919c95989c019b838d51818160121c165183538181600c1c16516001840153818160061c1651858401531651858201530196939a613caa565b50604051613d4981612cc4565b5f81529056fe5ae7d78895a6c4459df101ec54fdaa0c39d9e9876b67405c4c3eb8a3dfa9edb9a2646970667358221220dfcbba2f17cb98d35cf6dd61d6139375ebf35815ec8b253e121752a6efc0bd1664736f6c6343000818003354cdd369e4e8a8515e52ca72ec816c2101831ad1f18bf44102ed171459c9b4f8","linkReferences":{}},"methodIdentifiers":{"DEFAULT_ADMIN_ROLE()":"a217fddf","MANUFACTURER_ROLE()":"965288b0","RETAILER_ROLE()":"2115e7bf","SHIPPER_ROLE()":"0a100d6c","approve(address,uint256)":"095ea7b3","balanceOf(address)":"70a08231","getApproved(uint256)":"081812fc","getHistory(uint256)":"c8691b2a","getProduct(uint256)":"b9db15b4","getRoleAdmin(bytes32)":"248a9ca3","grantRole(bytes32,address)":"2f2ff15d","hasRole(bytes32,address)":"91d14854","isApprovedForAll(address,address)":"e985e9c5","isSerialRegistered(string)":"22d54395","mintProduct(string,string,string)":"f44f66b4","name()":"06fdde03","ownerOf(uint256)":"6352211e","products(uint256)":"7acc0b20","recordPickup(uint256,string,string)":"acbbb8ec","recordRetailerReceipt(uint256,string,string)":"56a3aeec","recordTransitCheckpoint(uint256,string,string)":"c60f89cc","renounceRole(bytes32,address)":"36568abe","revokeRole(bytes32,address)":"d547741f","safeTransferFrom(address,address,uint256)":"42842e0e","safeTransferFrom(address,address,uint256,bytes)":"b88d4fde","sellToConsumer(uint256,address,string)":"a53e44ac","setApprovalForAll(address,bool)":"a22cb465","supportsInterface(bytes4)":"01ffc9a7","symbol()":"95d89b41","tokenURI(uint256)":"c87b56dd","totalProducts()":"9b9d326d","transferFrom(address,address,uint256)":"23b872dd","verifyAuthenticity(uint256,string)":"cdd1a6ee"},"id":39}